{
  "address": "0x716453979dF2785920c0A183Af370fC69151A7D5",
  "abi": [
    {
      "inputs": [],
      "name": "ContractConfigNotSet",
      "type": "error"
    },
    {
      "inputs": [],
      "name": "NotOwnerOfContract",
      "type": "error"
    },
    {
      "inputs": [],
      "name": "SaleEnded",
      "type": "error"
    },
    {
      "inputs": [],
      "name": "SaleHasNotStarted",
      "type": "error"
    },
    {
      "inputs": [],
      "name": "SaleStillActive",
      "type": "error"
    },
    {
      "inputs": [],
      "name": "SetSaleNotInUse",
      "type": "error"
    },
    {
      "inputs": [
        {
          "internalType": "address",
          "name": "user",
          "type": "address"
        },
        {
          "internalType": "uint256",
          "name": "limit",
          "type": "uint256"
        },
        {
          "internalType": "uint256",
          "name": "requestedAmount",
          "type": "uint256"
        }
      ],
      "name": "UserExceedsMintLimit",
      "type": "error"
    },
    {
      "inputs": [],
      "name": "WrongValueSent",
      "type": "error"
    },
    {
      "anonymous": false,
      "inputs": [
        {
          "indexed": true,
          "internalType": "address",
          "name": "sender",
          "type": "address"
        },
        {
          "indexed": true,
          "internalType": "address",
          "name": "tokenContract",
          "type": "address"
        },
        {
          "indexed": true,
          "internalType": "uint256",
          "name": "tokenId",
          "type": "uint256"
        },
        {
          "indexed": false,
          "internalType": "string",
          "name": "comment",
          "type": "string"
        }
      ],
      "name": "CreatorComment",
      "type": "event"
    },
    {
      "anonymous": false,
      "inputs": [
        {
          "indexed": true,
          "internalType": "address",
          "name": "sender",
          "type": "address"
        },
        {
          "indexed": true,
          "internalType": "address",
          "name": "tokenContract",
          "type": "address"
        },
        {
          "indexed": true,
          "internalType": "uint256",
          "name": "tokenId",
          "type": "uint256"
        },
        {
          "indexed": false,
          "internalType": "uint256",
          "name": "quantity",
          "type": "uint256"
        },
        {
          "indexed": false,
          "internalType": "string",
          "name": "comment",
          "type": "string"
        }
      ],
      "name": "MintComment",
      "type": "event"
    },
    {
      "anonymous": false,
      "inputs": [
        {
          "indexed": true,
          "internalType": "address",
          "name": "mediaContract",
          "type": "address"
        },
        {
          "indexed": true,
          "internalType": "uint256",
          "name": "tokenId",
          "type": "uint256"
        },
        {
          "components": [
            {
              "internalType": "uint64",
              "name": "saleStart",
              "type": "uint64"
            },
            {
              "internalType": "uint64",
              "name": "saleEnd",
              "type": "uint64"
            },
            {
              "internalType": "uint64",
              "name": "maxTokensPerAddress",
              "type": "uint64"
            },
            {
              "internalType": "uint96",
              "name": "pricePerToken",
              "type": "uint96"
            },
            {
              "internalType": "address",
              "name": "creator",
              "type": "address"
            }
          ],
          "indexed": false,
          "internalType": "struct IPerpetualEditionsSaleStrategy.SalesConfig",
          "name": "salesConfig",
          "type": "tuple"
        }
      ],
      "name": "SaleSet",
      "type": "event"
    },
    {
      "inputs": [],
      "name": "contractName",
      "outputs": [
        {
          "internalType": "string",
          "name": "",
          "type": "string"
        }
      ],
      "stateMutability": "pure",
      "type": "function"
    },
    {
      "inputs": [],
      "name": "contractURI",
      "outputs": [
        {
          "internalType": "string",
          "name": "",
          "type": "string"
        }
      ],
      "stateMutability": "pure",
      "type": "function"
    },
    {
      "inputs": [],
      "name": "contractVersion",
      "outputs": [
        {
          "internalType": "string",
          "name": "",
          "type": "string"
        }
      ],
      "stateMutability": "pure",
      "type": "function"
    },
    {
      "inputs": [
        {
          "internalType": "contract IZoraCreator1155",
          "name": "nftAddress",
          "type": "address"
        },
        {
          "components": [
            {
              "internalType": "uint256",
              "name": "maxSupply",
              "type": "uint256"
            },
            {
              "internalType": "uint64",
              "name": "maxTokensPerAddress",
              "type": "uint64"
            },
            {
              "internalType": "uint96",
              "name": "pricePerToken",
              "type": "uint96"
            }
          ],
          "internalType": "struct IPerpetualEditionsSaleStrategy.CreateTokenSaleOptions",
          "name": "salesOptions",
          "type": "tuple"
        },
        {
          "internalType": "string",
          "name": "creatorComment",
          "type": "string"
        }
      ],
      "name": "createToken",
      "outputs": [],
      "stateMutability": "nonpayable",
      "type": "function"
    },
    {
      "inputs": [
        {
          "internalType": "address",
          "name": "tokenContract",
          "type": "address"
        }
      ],
      "name": "getContractConfig",
      "outputs": [
        {
          "components": [
            {
              "internalType": "uint256",
              "name": "totalTokens",
              "type": "uint256"
            },
            {
              "internalType": "string",
              "name": "baseURI",
              "type": "string"
            },
            {
              "internalType": "address",
              "name": "fundsRecipient",
              "type": "address"
            },
            {
              "internalType": "uint64",
              "name": "duration",
              "type": "uint64"
            }
          ],
          "internalType": "struct IPerpetualEditionsSaleStrategy.ContractConfig",
          "name": "",
          "type": "tuple"
        }
      ],
      "stateMutability": "view",
      "type": "function"
    },
    {
      "inputs": [
        {
          "internalType": "address",
          "name": "tokenContract",
          "type": "address"
        },
        {
          "internalType": "uint256",
          "name": "tokenId",
          "type": "uint256"
        },
        {
          "internalType": "address",
          "name": "wallet",
          "type": "address"
        }
      ],
      "name": "getMintedPerWallet",
      "outputs": [
        {
          "internalType": "uint256",
          "name": "",
          "type": "uint256"
        }
      ],
      "stateMutability": "view",
      "type": "function"
    },
    {
      "inputs": [
        {
          "internalType": "address",
          "name": "tokenContract",
          "type": "address"
        },
        {
          "internalType": "uint256",
          "name": "tokenId",
          "type": "uint256"
        }
      ],
      "name": "getSaleConfig",
      "outputs": [
        {
          "components": [
            {
              "internalType": "uint64",
              "name": "saleStart",
              "type": "uint64"
            },
            {
              "internalType": "uint64",
              "name": "saleEnd",
              "type": "uint64"
            },
            {
              "internalType": "uint64",
              "name": "maxTokensPerAddress",
              "type": "uint64"
            },
            {
              "internalType": "uint96",
              "name": "pricePerToken",
              "type": "uint96"
            },
            {
              "internalType": "address",
              "name": "creator",
              "type": "address"
            }
          ],
          "internalType": "struct IPerpetualEditionsSaleStrategy.SalesConfig",
          "name": "",
          "type": "tuple"
        }
      ],
      "stateMutability": "view",
      "type": "function"
    },
    {
      "inputs": [
        {
          "internalType": "address",
          "name": "",
          "type": "address"
        },
        {
          "internalType": "uint256",
          "name": "tokenId",
          "type": "uint256"
        },
        {
          "internalType": "uint256",
          "name": "quantity",
          "type": "uint256"
        },
        {
          "internalType": "uint256",
          "name": "ethValueSent",
          "type": "uint256"
        },
        {
          "internalType": "bytes",
          "name": "minterArguments",
          "type": "bytes"
        }
      ],
      "name": "requestMint",
      "outputs": [
        {
          "components": [
            {
              "components": [
                {
                  "internalType": "enum ICreatorCommands.CreatorActions",
                  "name": "method",
                  "type": "uint8"
                },
                {
                  "internalType": "bytes",
                  "name": "args",
                  "type": "bytes"
                }
              ],
              "internalType": "struct ICreatorCommands.Command[]",
              "name": "commands",
              "type": "tuple[]"
            },
            {
              "internalType": "uint256",
              "name": "at",
              "type": "uint256"
            }
          ],
          "internalType": "struct ICreatorCommands.CommandSet",
          "name": "commands",
          "type": "tuple"
        }
      ],
      "stateMutability": "nonpayable",
      "type": "function"
    },
    {
      "inputs": [
        {
          "internalType": "uint256",
          "name": "tokenId",
          "type": "uint256"
        }
      ],
      "name": "resetSale",
      "outputs": [],
      "stateMutability": "nonpayable",
      "type": "function"
    },
    {
      "inputs": [
        {
          "internalType": "contract IZoraCreator1155",
          "name": "nftAddress",
          "type": "address"
        },
        {
          "components": [
            {
              "internalType": "uint256",
              "name": "totalTokens",
              "type": "uint256"
            },
            {
              "internalType": "string",
              "name": "baseURI",
              "type": "string"
            },
            {
              "internalType": "address",
              "name": "fundsRecipient",
              "type": "address"
            },
            {
              "internalType": "uint64",
              "name": "duration",
              "type": "uint64"
            }
          ],
          "internalType": "struct IPerpetualEditionsSaleStrategy.ContractConfig",
          "name": "contractConfig",
          "type": "tuple"
        }
      ],
      "name": "setContractConfig",
      "outputs": [],
      "stateMutability": "nonpayable",
      "type": "function"
    },
    {
      "inputs": [
        {
          "internalType": "uint256",
          "name": "",
          "type": "uint256"
        },
        {
          "components": [
            {
              "internalType": "uint64",
              "name": "saleStart",
              "type": "uint64"
            },
            {
              "internalType": "uint64",
              "name": "saleEnd",
              "type": "uint64"
            },
            {
              "internalType": "uint64",
              "name": "maxTokensPerAddress",
              "type": "uint64"
            },
            {
              "internalType": "uint96",
              "name": "pricePerToken",
              "type": "uint96"
            },
            {
              "internalType": "address",
              "name": "creator",
              "type": "address"
            }
          ],
          "internalType": "struct IPerpetualEditionsSaleStrategy.SalesConfig",
          "name": "",
          "type": "tuple"
        }
      ],
      "name": "setSale",
      "outputs": [],
      "stateMutability": "pure",
      "type": "function"
    },
    {
      "inputs": [
        {
          "internalType": "bytes4",
          "name": "interfaceId",
          "type": "bytes4"
        }
      ],
      "name": "supportsInterface",
      "outputs": [
        {
          "internalType": "bool",
          "name": "",
          "type": "bool"
        }
      ],
      "stateMutability": "pure",
      "type": "function"
    }
  ],
  "transactionHash": "0xbed62c07b529174e1cd43852ffc8e1a0637ad2d668aa3bf93291a1939fc169fb",
  "args": [],
  "numDeployments": 1,
  "solcInputHash": "a0b90d2bd4ff086c09fe7e8f2ca75981",
  "bytecode": "0x608060405234801561001057600080fd5b50613639806100206000396000f3fe608060405234801561001057600080fd5b50600436106100b45760003560e01c806375d0c0dc1161007157806375d0c0dc1461019d5780637b49ff2c146101bb5780639854c163146101eb578063a0a8e46014610207578063ccbfa34d14610225578063e8a3d48514610255576100b4565b806301ffc9a7146100b957806319b45c4f146100e957806334db7eee1461010557806358bb6057146101215780636890e5b31461013d5780636b6776881461016d575b600080fd5b6100d360048036038101906100ce9190611f6d565b610273565b6040516100e09190611fb5565b60405180910390f35b61010360048036038101906100fe9190612006565b6102a5565b005b61011f600480360381019061011a9190612237565b610430565b005b61013b6004803603810190610136919061237e565b610462565b005b61015760048036038101906101529190612448565b610c44565b6040516101649190612723565b60405180910390f35b61018760048036038101906101829190612745565b6110f6565b604051610194919061281a565b60405180910390f35b6101a561128b565b6040516101b2919061288a565b60405180910390f35b6101d560048036038101906101d091906128ac565b6112c8565b6040516101e2919061290e565b60405180910390f35b61020560048036038101906102009190612a72565b611360565b005b61020f611562565b60405161021c919061288a565b60405180910390f35b61023f600480360381019061023a9190612ace565b61159f565b60405161024c9190612ba8565b60405180910390f35b61025d61171c565b60405161026a919061288a565b60405180910390f35b600061027e8261173c565b8061028e575061028d8261173c565b5b8061029e575061029d826117a6565b5b9050919050565b600160003373ffffffffffffffffffffffffffffffffffffffff1673ffffffffffffffffffffffffffffffffffffffff1681526020019081526020016000206000828152602001908152602001600020600080820160006101000a81549067ffffffffffffffff02191690556000820160086101000a81549067ffffffffffffffff02191690556000820160106101000a81549067ffffffffffffffff02191690556001820160006101000a8154906bffffffffffffffffffffffff021916905560018201600c6101000a81549073ffffffffffffffffffffffffffffffffffffffff02191690555050803373ffffffffffffffffffffffffffffffffffffffff167f5e4ad74f00b9a9d4a8452359a7fbd80cc5a6930a9df5e5b797ddc024b24b252c600160003373ffffffffffffffffffffffffffffffffffffffff1673ffffffffffffffffffffffffffffffffffffffff16815260200190815260200160002060008581526020019081526020016000206040516104259190612d58565b60405180910390a350565b6040517ffcc760f300000000000000000000000000000000000000000000000000000000815260040160405180910390fd5b600060018573ffffffffffffffffffffffffffffffffffffffff166375794a3c6040518163ffffffff1660e01b8152600401602060405180830381865afa1580156104b1573d6000803e3d6000fd5b505050506040513d601f19601f820116820180604052508101906104d59190612d88565b6104df9190612de4565b90506000600160008773ffffffffffffffffffffffffffffffffffffffff1673ffffffffffffffffffffffffffffffffffffffff16815260200190815260200160002060008381526020019081526020016000206040518060a00160405290816000820160009054906101000a900467ffffffffffffffff1667ffffffffffffffff1667ffffffffffffffff1681526020016000820160089054906101000a900467ffffffffffffffff1667ffffffffffffffff1667ffffffffffffffff1681526020016000820160109054906101000a900467ffffffffffffffff1667ffffffffffffffff1667ffffffffffffffff1681526020016001820160009054906101000a90046bffffffffffffffffffffffff166bffffffffffffffffffffffff166bffffffffffffffffffffffff16815260200160018201600c9054906101000a900473ffffffffffffffffffffffffffffffffffffffff1673ffffffffffffffffffffffffffffffffffffffff1673ffffffffffffffffffffffffffffffffffffffff168152505090506000600260008873ffffffffffffffffffffffffffffffffffffffff1673ffffffffffffffffffffffffffffffffffffffff168152602001908152602001600020604051806080016040529081600082015481526020016001820180546106d090612e47565b80601f01602080910402602001604051908101604052809291908181526020018280546106fc90612e47565b80156107495780601f1061071e57610100808354040283529160200191610749565b820191906000526020600020905b81548152906001019060200180831161072c57829003601f168201915b505050505081526020016002820160009054906101000a900473ffffffffffffffffffffffffffffffffffffffff1673ffffffffffffffffffffffffffffffffffffffff1673ffffffffffffffffffffffffffffffffffffffff1681526020016002820160149054906101000a900467ffffffffffffffff1667ffffffffffffffff1667ffffffffffffffff1681525050905060008160200151510361081b576040517f10dac50900000000000000000000000000000000000000000000000000000000815260040160405180910390fd5b816020015167ffffffffffffffff16421015610863576040517fc222683100000000000000000000000000000000000000000000000000000000815260040160405180910390fd5b60006040518060a001604052804267ffffffffffffffff1681526020018360600151426108909190612e78565b67ffffffffffffffff168152602001886020015167ffffffffffffffff16815260200188604001516bffffffffffffffffffffffff1681526020013373ffffffffffffffffffffffffffffffffffffffff16815250905060008873ffffffffffffffffffffffffffffffffffffffff1663d258609a846020015161091f60018961091a9190612eb4565b611878565b604051602001610930929190612f24565b6040516020818303038152906040528a600001516040518363ffffffff1660e01b8152600401610961929190612f48565b6020604051808303816000875af1158015610980573d6000803e3d6000fd5b505050506040513d601f19601f820116820180604052508101906109a49190612d88565b905081600160008b73ffffffffffffffffffffffffffffffffffffffff1673ffffffffffffffffffffffffffffffffffffffff168152602001908152602001600020600083815260200190815260200160002060008201518160000160006101000a81548167ffffffffffffffff021916908367ffffffffffffffff16021790555060208201518160000160086101000a81548167ffffffffffffffff021916908367ffffffffffffffff16021790555060408201518160000160106101000a81548167ffffffffffffffff021916908367ffffffffffffffff16021790555060608201518160010160006101000a8154816bffffffffffffffffffffffff02191690836bffffffffffffffffffffffff160217905550608082015181600101600c6101000a81548173ffffffffffffffffffffffffffffffffffffffff021916908373ffffffffffffffffffffffffffffffffffffffff1602179055509050508873ffffffffffffffffffffffffffffffffffffffff1663c238d1ee338360016040518463ffffffff1660e01b8152600401610b4393929190613003565b600060405180830381600087803b158015610b5d57600080fd5b505af1158015610b71573d6000803e3d6000fd5b50505050808973ffffffffffffffffffffffffffffffffffffffff167f5e4ad74f00b9a9d4a8452359a7fbd80cc5a6930a9df5e5b797ddc024b24b252c84604051610bbc919061281a565b60405180910390a36000878790501115610c3957808973ffffffffffffffffffffffffffffffffffffffff163373ffffffffffffffffffffffffffffffffffffffff167f50f38e54f021872a4b2d2497881c53d6d50ab253af6ccc8bec79c69e2634b8698a8a604051610c3092919061307a565b60405180910390a45b505050505050505050565b610c4c611e02565b60008060405180602001604052806000815250905060208585905003610c82578484810190610c7b91906130dc565b9150610c9a565b8484810190610c919190613109565b80925081935050505b6000600160003373ffffffffffffffffffffffffffffffffffffffff1673ffffffffffffffffffffffffffffffffffffffff16815260200190815260200160002060008a815260200190815260200160002090506000600260003373ffffffffffffffffffffffffffffffffffffffff1673ffffffffffffffffffffffffffffffffffffffff16815260200190815260200160002060405180608001604052908160008201548152602001600182018054610d5490612e47565b80601f0160208091040260200160405190810160405280929190818152602001828054610d8090612e47565b8015610dcd5780601f10610da257610100808354040283529160200191610dcd565b820191906000526020600020905b815481529060010190602001808311610db057829003601f168201915b505050505081526020016002820160009054906101000a900473ffffffffffffffffffffffffffffffffffffffff1673ffffffffffffffffffffffffffffffffffffffff1673ffffffffffffffffffffffffffffffffffffffff1681526020016002820160149054906101000a900467ffffffffffffffff1667ffffffffffffffff1667ffffffffffffffff168152505090508160000160089054906101000a900467ffffffffffffffff1667ffffffffffffffff16421115610ebc576040517f0bd8a3eb00000000000000000000000000000000000000000000000000000000815260040160405180910390fd5b8160000160009054906101000a900467ffffffffffffffff1667ffffffffffffffff16421015610f18576040517fe8c4db8200000000000000000000000000000000000000000000000000000000815260040160405180910390fd5b87898360010160009054906101000a90046bffffffffffffffffffffffff166bffffffffffffffffffffffff16610f4f9190613165565b14610f86576040517f2f4613eb00000000000000000000000000000000000000000000000000000000815260040160405180910390fd5b60008260000160109054906101000a900467ffffffffffffffff1667ffffffffffffffff161115610fe157610fe08260000160109054906101000a900467ffffffffffffffff1667ffffffffffffffff168a338d88611946565b5b60008073ffffffffffffffffffffffffffffffffffffffff16826040015173ffffffffffffffffffffffffffffffffffffffff161415905061103d8161102857600161102b565b60025b60ff1687611b5190919063ffffffff16565b611054858c8c89611bb1909392919063ffffffff16565b6000845111156110c7578a3373ffffffffffffffffffffffffffffffffffffffff168673ffffffffffffffffffffffffffffffffffffffff167fb9490aee663998179ad13f9e1c1eb6189c71ad1a9ec87f33ad2766f98d9a268a8d886040516110be9291906131a7565b60405180910390a45b80156110e7576110e682604001518a88611c319092919063ffffffff16565b5b50505050509695505050505050565b6110fe611e1c565b600160008473ffffffffffffffffffffffffffffffffffffffff1673ffffffffffffffffffffffffffffffffffffffff16815260200190815260200160002060008381526020019081526020016000206040518060a00160405290816000820160009054906101000a900467ffffffffffffffff1667ffffffffffffffff1667ffffffffffffffff1681526020016000820160089054906101000a900467ffffffffffffffff1667ffffffffffffffff1667ffffffffffffffff1681526020016000820160109054906101000a900467ffffffffffffffff1667ffffffffffffffff1667ffffffffffffffff1681526020016001820160009054906101000a90046bffffffffffffffffffffffff166bffffffffffffffffffffffff166bffffffffffffffffffffffff16815260200160018201600c9054906101000a900473ffffffffffffffffffffffffffffffffffffffff1673ffffffffffffffffffffffffffffffffffffffff1673ffffffffffffffffffffffffffffffffffffffff1681525050905092915050565b60606040518060400160405280602081526020017f50657270657475616c2045646974696f6e732053616c65205374726174656779815250905090565b60008060008573ffffffffffffffffffffffffffffffffffffffff1673ffffffffffffffffffffffffffffffffffffffff168152602001908152602001600020600084815260200190815260200160002060008373ffffffffffffffffffffffffffffffffffffffff1673ffffffffffffffffffffffffffffffffffffffff1681526020019081526020016000205490509392505050565b8173ffffffffffffffffffffffffffffffffffffffff166323bd03863360008573ffffffffffffffffffffffffffffffffffffffff1663c04643566040518163ffffffff1660e01b81526004016020604051808303816000875af11580156113cc573d6000803e3d6000fd5b505050506040513d601f19601f820116820180604052508101906113f09190612d88565b6040518463ffffffff1660e01b815260040161140e93929190613212565b602060405180830381865afa15801561142b573d6000803e3d6000fd5b505050506040513d601f19601f8201168201806040525081019061144f9190613275565b611485576040517f4570a02400000000000000000000000000000000000000000000000000000000815260040160405180910390fd5b80600260008473ffffffffffffffffffffffffffffffffffffffff1673ffffffffffffffffffffffffffffffffffffffff1681526020019081526020016000206000820151816000015560208201518160010190816114e49190613444565b5060408201518160020160006101000a81548173ffffffffffffffffffffffffffffffffffffffff021916908373ffffffffffffffffffffffffffffffffffffffff16021790555060608201518160020160146101000a81548167ffffffffffffffff021916908367ffffffffffffffff1602179055509050505050565b60606040518060400160405280600581526020017f312e302e30000000000000000000000000000000000000000000000000000000815250905090565b6115a7611e8d565b600260008373ffffffffffffffffffffffffffffffffffffffff1673ffffffffffffffffffffffffffffffffffffffff1681526020019081526020016000206040518060800160405290816000820154815260200160018201805461160b90612e47565b80601f016020809104026020016040519081016040528092919081815260200182805461163790612e47565b80156116845780601f1061165957610100808354040283529160200191611684565b820191906000526020600020905b81548152906001019060200180831161166757829003601f168201915b505050505081526020016002820160009054906101000a900473ffffffffffffffffffffffffffffffffffffffff1673ffffffffffffffffffffffffffffffffffffffff1673ffffffffffffffffffffffffffffffffffffffff1681526020016002820160149054906101000a900467ffffffffffffffff1667ffffffffffffffff1667ffffffffffffffff16815250509050919050565b60606040518060600160405280602f81526020016135d5602f9139905090565b60007f7b49ff2c000000000000000000000000000000000000000000000000000000007bffffffffffffffffffffffffffffffffffffffffffffffffffffffff1916827bffffffffffffffffffffffffffffffffffffffffffffffffffffffff1916149050919050565b60007f6890e5b3000000000000000000000000000000000000000000000000000000007bffffffffffffffffffffffffffffffffffffffffffffffffffffffff1916827bffffffffffffffffffffffffffffffffffffffffffffffffffffffff1916148061187157507f01ffc9a7000000000000000000000000000000000000000000000000000000007bffffffffffffffffffffffffffffffffffffffffffffffffffffffff1916827bffffffffffffffffffffffffffffffffffffffffffffffffffffffff1916145b9050919050565b60606000600161188784611caf565b01905060008167ffffffffffffffff8111156118a6576118a5612049565b5b6040519080825280601f01601f1916602001820160405280156118d85781602001600182028036833780820191505090505b509050600082602001820190505b60011561193b578080600190039150507f3031323334353637383961626364656600000000000000000000000000000000600a86061a8153600a858161192f5761192e613516565b5b049450600085036118e6575b819350505050919050565b836000808573ffffffffffffffffffffffffffffffffffffffff1673ffffffffffffffffffffffffffffffffffffffff168152602001908152602001600020600084815260200190815260200160002060008373ffffffffffffffffffffffffffffffffffffffff1673ffffffffffffffffffffffffffffffffffffffff16815260200190815260200160002060008282546119e29190612eb4565b92505081905550846000808573ffffffffffffffffffffffffffffffffffffffff1673ffffffffffffffffffffffffffffffffffffffff168152602001908152602001600020600084815260200190815260200160002060008373ffffffffffffffffffffffffffffffffffffffff1673ffffffffffffffffffffffffffffffffffffffff168152602001908152602001600020541115611b4a5780856000808673ffffffffffffffffffffffffffffffffffffffff1673ffffffffffffffffffffffffffffffffffffffff168152602001908152602001600020600085815260200190815260200160002060008473ffffffffffffffffffffffffffffffffffffffff1673ffffffffffffffffffffffffffffffffffffffff168152602001908152602001600020546040517fe2d91564000000000000000000000000000000000000000000000000000000008152600401611b4193929190613545565b60405180910390fd5b5050505050565b8067ffffffffffffffff811115611b6b57611b6a612049565b5b604051908082528060200260200182016040528015611ba457816020015b611b91611ed5565b815260200190600190039081611b895790505b5082600001819052505050565b6040518060400160405280600280811115611bcf57611bce61250e565b5b8152602001848484604051602001611be993929190613545565b604051602081830303815290604052815250846000015185602001805180919060010181525081518110611c2057611c1f61357c565b5b602002602001018190525050505050565b604051806040016040528060016002811115611c5057611c4f61250e565b5b81526020018383604051602001611c689291906135ab565b604051602081830303815290604052815250836000015184602001805180919060010181525081518110611c9f57611c9e61357c565b5b6020026020010181905250505050565b600080600090507a184f03e93ff9f4daa797ed6e38ed64bf6a1f0100000000000000008310611d0d577a184f03e93ff9f4daa797ed6e38ed64bf6a1f0100000000000000008381611d0357611d02613516565b5b0492506040810190505b6d04ee2d6d415b85acef81000000008310611d4a576d04ee2d6d415b85acef81000000008381611d4057611d3f613516565b5b0492506020810190505b662386f26fc100008310611d7957662386f26fc100008381611d6f57611d6e613516565b5b0492506010810190505b6305f5e1008310611da2576305f5e1008381611d9857611d97613516565b5b0492506008810190505b6127108310611dc7576127108381611dbd57611dbc613516565b5b0492506004810190505b60648310611dea5760648381611de057611ddf613516565b5b0492506002810190505b600a8310611df9576001810190505b80915050919050565b604051806040016040528060608152602001600081525090565b6040518060a00160405280600067ffffffffffffffff168152602001600067ffffffffffffffff168152602001600067ffffffffffffffff16815260200160006bffffffffffffffffffffffff168152602001600073ffffffffffffffffffffffffffffffffffffffff1681525090565b60405180608001604052806000815260200160608152602001600073ffffffffffffffffffffffffffffffffffffffff168152602001600067ffffffffffffffff1681525090565b604051806040016040528060006002811115611ef457611ef361250e565b5b8152602001606081525090565b6000604051905090565b600080fd5b600080fd5b60007fffffffff0000000000000000000000000000000000000000000000000000000082169050919050565b611f4a81611f15565b8114611f5557600080fd5b50565b600081359050611f6781611f41565b92915050565b600060208284031215611f8357611f82611f0b565b5b6000611f9184828501611f58565b91505092915050565b60008115159050919050565b611faf81611f9a565b82525050565b6000602082019050611fca6000830184611fa6565b92915050565b6000819050919050565b611fe381611fd0565b8114611fee57600080fd5b50565b60008135905061200081611fda565b92915050565b60006020828403121561201c5761201b611f0b565b5b600061202a84828501611ff1565b91505092915050565b600080fd5b6000601f19601f8301169050919050565b7f4e487b7100000000000000000000000000000000000000000000000000000000600052604160045260246000fd5b61208182612038565b810181811067ffffffffffffffff821117156120a05761209f612049565b5b80604052505050565b60006120b3611f01565b90506120bf8282612078565b919050565b600080fd5b600067ffffffffffffffff82169050919050565b6120e6816120c9565b81146120f157600080fd5b50565b600081359050612103816120dd565b92915050565b60006bffffffffffffffffffffffff82169050919050565b61212a81612109565b811461213557600080fd5b50565b60008135905061214781612121565b92915050565b600073ffffffffffffffffffffffffffffffffffffffff82169050919050565b60006121788261214d565b9050919050565b6121888161216d565b811461219357600080fd5b50565b6000813590506121a58161217f565b92915050565b600060a082840312156121c1576121c0612033565b5b6121cb60a06120a9565b905060006121db848285016120f4565b60008301525060206121ef848285016120f4565b6020830152506040612203848285016120f4565b604083015250606061221784828501612138565b606083015250608061222b84828501612196565b60808301525092915050565b60008060c0838503121561224e5761224d611f0b565b5b600061225c85828601611ff1565b925050602061226d858286016121ab565b9150509250929050565b60006122828261216d565b9050919050565b61229281612277565b811461229d57600080fd5b50565b6000813590506122af81612289565b92915050565b6000606082840312156122cb576122ca612033565b5b6122d560606120a9565b905060006122e584828501611ff1565b60008301525060206122f9848285016120f4565b602083015250604061230d84828501612138565b60408301525092915050565b600080fd5b600080fd5b600080fd5b60008083601f84011261233e5761233d612319565b5b8235905067ffffffffffffffff81111561235b5761235a61231e565b5b60208301915083600182028301111561237757612376612323565b5b9250929050565b60008060008060a0858703121561239857612397611f0b565b5b60006123a6878288016122a0565b94505060206123b7878288016122b5565b935050608085013567ffffffffffffffff8111156123d8576123d7611f10565b5b6123e487828801612328565b925092505092959194509250565b60008083601f84011261240857612407612319565b5b8235905067ffffffffffffffff8111156124255761242461231e565b5b60208301915083600182028301111561244157612440612323565b5b9250929050565b60008060008060008060a0878903121561246557612464611f0b565b5b600061247389828a01612196565b965050602061248489828a01611ff1565b955050604061249589828a01611ff1565b94505060606124a689828a01611ff1565b935050608087013567ffffffffffffffff8111156124c7576124c6611f10565b5b6124d389828a016123f2565b92509250509295509295509295565b600081519050919050565b600082825260208201905092915050565b6000819050602082019050919050565b7f4e487b7100000000000000000000000000000000000000000000000000000000600052602160045260246000fd5b6003811061254e5761254d61250e565b5b50565b600081905061255f8261253d565b919050565b600061256f82612551565b9050919050565b61257f81612564565b82525050565b600081519050919050565b600082825260208201905092915050565b60005b838110156125bf5780820151818401526020810190506125a4565b60008484015250505050565b60006125d682612585565b6125e08185612590565b93506125f08185602086016125a1565b6125f981612038565b840191505092915050565b600060408301600083015161261c6000860182612576565b506020830151848203602086015261263482826125cb565b9150508091505092915050565b600061264d8383612604565b905092915050565b6000602082019050919050565b600061266d826124e2565b61267781856124ed565b935083602082028501612689856124fe565b8060005b858110156126c557848403895281516126a68582612641565b94506126b183612655565b925060208a0199505060018101905061268d565b50829750879550505050505092915050565b6126e081611fd0565b82525050565b600060408301600083015184820360008601526127038282612662565b915050602083015161271860208601826126d7565b508091505092915050565b6000602082019050818103600083015261273d81846126e6565b905092915050565b6000806040838503121561275c5761275b611f0b565b5b600061276a85828601612196565b925050602061277b85828601611ff1565b9150509250929050565b61278e816120c9565b82525050565b61279d81612109565b82525050565b6127ac8161216d565b82525050565b60a0820160008201516127c86000850182612785565b5060208201516127db6020850182612785565b5060408201516127ee6040850182612785565b5060608201516128016060850182612794565b50608082015161281460808501826127a3565b50505050565b600060a08201905061282f60008301846127b2565b92915050565b600081519050919050565b600082825260208201905092915050565b600061285c82612835565b6128668185612840565b93506128768185602086016125a1565b61287f81612038565b840191505092915050565b600060208201905081810360008301526128a48184612851565b905092915050565b6000806000606084860312156128c5576128c4611f0b565b5b60006128d386828701612196565b93505060206128e486828701611ff1565b92505060406128f586828701612196565b9150509250925092565b61290881611fd0565b82525050565b600060208201905061292360008301846128ff565b92915050565b600080fd5b600067ffffffffffffffff82111561294957612948612049565b5b61295282612038565b9050602081019050919050565b82818337600083830152505050565b600061298161297c8461292e565b6120a9565b90508281526020810184848401111561299d5761299c612929565b5b6129a884828561295f565b509392505050565b600082601f8301126129c5576129c4612319565b5b81356129d584826020860161296e565b91505092915050565b6000608082840312156129f4576129f3612033565b5b6129fe60806120a9565b90506000612a0e84828501611ff1565b600083015250602082013567ffffffffffffffff811115612a3257612a316120c4565b5b612a3e848285016129b0565b6020830152506040612a5284828501612196565b6040830152506060612a66848285016120f4565b60608301525092915050565b60008060408385031215612a8957612a88611f0b565b5b6000612a97858286016122a0565b925050602083013567ffffffffffffffff811115612ab857612ab7611f10565b5b612ac4858286016129de565b9150509250929050565b600060208284031215612ae457612ae3611f0b565b5b6000612af284828501612196565b91505092915050565b600082825260208201905092915050565b6000612b1782612835565b612b218185612afb565b9350612b318185602086016125a1565b612b3a81612038565b840191505092915050565b6000608083016000830151612b5d60008601826126d7565b5060208301518482036020860152612b758282612b0c565b9150506040830151612b8a60408601826127a3565b506060830151612b9d6060860182612785565b508091505092915050565b60006020820190508181036000830152612bc28184612b45565b905092915050565b60008160001c9050919050565b600067ffffffffffffffff82169050919050565b6000612bfe612bf983612bca565b612bd7565b9050919050565b60008160401c9050919050565b6000612c25612c2083612c05565b612bd7565b9050919050565b60008160801c9050919050565b6000612c4c612c4783612c2c565b612bd7565b9050919050565b60006bffffffffffffffffffffffff82169050919050565b6000612c7e612c7983612bca565b612c53565b9050919050565b60008160601c9050919050565b600073ffffffffffffffffffffffffffffffffffffffff82169050919050565b6000612cc5612cc083612c85565b612c92565b9050919050565b60a082016000808301549050612ce181612beb565b612cee6000860182612785565b50612cf881612c12565b612d056020860182612785565b50612d0f81612c39565b612d1c6040860182612785565b5060018301549050612d2d81612c6b565b612d3a6060860182612794565b50612d4481612cb2565b612d5160808601826127a3565b5050505050565b600060a082019050612d6d6000830184612ccc565b92915050565b600081519050612d8281611fda565b92915050565b600060208284031215612d9e57612d9d611f0b565b5b6000612dac84828501612d73565b91505092915050565b7f4e487b7100000000000000000000000000000000000000000000000000000000600052601160045260246000fd5b6000612def82611fd0565b9150612dfa83611fd0565b9250828203905081811115612e1257612e11612db5565b5b92915050565b7f4e487b7100000000000000000000000000000000000000000000000000000000600052602260045260246000fd5b60006002820490506001821680612e5f57607f821691505b602082108103612e7257612e71612e18565b5b50919050565b6000612e83826120c9565b9150612e8e836120c9565b9250828201905067ffffffffffffffff811115612eae57612ead612db5565b5b92915050565b6000612ebf82611fd0565b9150612eca83611fd0565b9250828201905080821115612ee257612ee1612db5565b5b92915050565b600081905092915050565b6000612efe82612835565b612f088185612ee8565b9350612f188185602086016125a1565b80840191505092915050565b6000612f308285612ef3565b9150612f3c8284612ef3565b91508190509392505050565b60006040820190508181036000830152612f628185612851565b9050612f7160208301846128ff565b9392505050565b612f818161216d565b82525050565b6000819050919050565b6000819050919050565b6000612fb6612fb1612fac84612f87565b612f91565b611fd0565b9050919050565b612fc681612f9b565b82525050565b600082825260208201905092915050565b50565b6000612fed600083612fcc565b9150612ff882612fdd565b600082019050919050565b60006080820190506130186000830186612f78565b61302560208301856128ff565b6130326040830184612fbd565b818103606083015261304381612fe0565b9050949350505050565b60006130598385612840565b935061306683858461295f565b61306f83612038565b840190509392505050565b6000602082019050818103600083015261309581848661304d565b90509392505050565b60006130a98261214d565b9050919050565b6130b98161309e565b81146130c457600080fd5b50565b6000813590506130d6816130b0565b92915050565b6000602082840312156130f2576130f1611f0b565b5b6000613100848285016130c7565b91505092915050565b600080604083850312156131205761311f611f0b565b5b600061312e858286016130c7565b925050602083013567ffffffffffffffff81111561314f5761314e611f10565b5b61315b858286016129b0565b9150509250929050565b600061317082611fd0565b915061317b83611fd0565b925082820261318981611fd0565b915082820484148315176131a05761319f612db5565b5b5092915050565b60006040820190506131bc60008301856128ff565b81810360208301526131ce8184612851565b90509392505050565b6000819050919050565b60006131fc6131f76131f2846131d7565b612f91565b611fd0565b9050919050565b61320c816131e1565b82525050565b60006060820190506132276000830186612f78565b6132346020830185613203565b61324160408301846128ff565b949350505050565b61325281611f9a565b811461325d57600080fd5b50565b60008151905061326f81613249565b92915050565b60006020828403121561328b5761328a611f0b565b5b600061329984828501613260565b91505092915050565b60008190508160005260206000209050919050565b60006020601f8301049050919050565b600082821b905092915050565b6000600883026133047fffffffffffffffffffffffffffffffffffffffffffffffffffffffffffffffff826132c7565b61330e86836132c7565b95508019841693508086168417925050509392505050565b600061334161333c61333784611fd0565b612f91565b611fd0565b9050919050565b6000819050919050565b61335b83613326565b61336f61336782613348565b8484546132d4565b825550505050565b600090565b613384613377565b61338f818484613352565b505050565b5b818110156133b3576133a860008261337c565b600181019050613395565b5050565b601f8211156133f8576133c9816132a2565b6133d2846132b7565b810160208510156133e1578190505b6133f56133ed856132b7565b830182613394565b50505b505050565b600082821c905092915050565b600061341b600019846008026133fd565b1980831691505092915050565b6000613434838361340a565b9150826002028217905092915050565b61344d82612835565b67ffffffffffffffff81111561346657613465612049565b5b6134708254612e47565b61347b8282856133b7565b600060209050601f8311600181146134ae576000841561349c578287015190505b6134a68582613428565b86555061350e565b601f1984166134bc866132a2565b60005b828110156134e4578489015182556001820191506020850194506020810190506134bf565b8683101561350157848901516134fd601f89168261340a565b8355505b6001600288020188555050505b505050505050565b7f4e487b7100000000000000000000000000000000000000000000000000000000600052601260045260246000fd5b600060608201905061355a6000830186612f78565b61356760208301856128ff565b61357460408301846128ff565b949350505050565b7f4e487b7100000000000000000000000000000000000000000000000000000000600052603260045260246000fd5b60006040820190506135c06000830185612f78565b6135cd60208301846128ff565b939250505056fe68747470733a2f2f6769746875622e636f6d2f6f75727a6f72612f7a6f72612d313135352d636f6e7472616374732fa264697066735822122037374b1b03ebce912a923654679921e2c143d25ea195fd1699a1bf0a9dd2fc8964736f6c63430008120033",
  "devdoc": {
    "author": "@sammdec",
    "kind": "dev",
    "methods": {
      "requestMint(address,uint256,uint256,uint256,bytes)": {
        "params": {
          "ethValueSent": "The amount of ETH sent with the transaction",
          "minterArguments": "The arguments passed to the minter, which should be the address to mint to",
          "quantity": "The quantity of tokens to mint",
          "tokenId": "The token ID to mint"
        }
      }
    },
    "title": "Perpetual editions sale strategy",
    "version": 1
  },
  "userdoc": {
    "kind": "user",
    "methods": {
      "contractName()": {
        "notice": "The name of the sale strategy"
      },
      "contractURI()": {
        "notice": "Contract URI returns the uri for more information about the given contract"
      },
      "contractVersion()": {
        "notice": "The version of the sale strategy"
      },
      "createToken(address,(uint256,uint64,uint96),string)": {
        "notice": "Sets the sale config for the next token"
      },
      "getSaleConfig(address,uint256)": {
        "notice": "Returns the sale config for a given token"
      },
      "requestMint(address,uint256,uint256,uint256,bytes)": {
        "notice": "Compiles and returns the commands needed to mint a token using this sales strategy"
      },
      "resetSale(uint256)": {
        "notice": "Deletes the sale config for a given token"
      },
      "setSale(uint256,(uint64,uint64,uint64,uint96,address))": {
        "notice": "As we want everyone to be able to create a token and sale we wont be using function, but leaving this here as its convention within ZoraCreator"
      }
    },
    "notice": "A sales strategy for ZoraCreator that enables perpetual editions",
    "version": 1
  },
  "storageLayout": {
    "storage": [
      {
        "astId": 2580,
        "contract": "contracts/PerpetualSalesStrategy.sol:PerpetualEditionsSaleStrategy",
        "label": "mintedPerAddress",
        "offset": 0,
        "slot": "0",
        "type": "t_mapping(t_address,t_mapping(t_uint256,t_mapping(t_address,t_uint256)))"
      },
      {
        "astId": 1419,
        "contract": "contracts/PerpetualSalesStrategy.sol:PerpetualEditionsSaleStrategy",
        "label": "salesConfigs",
        "offset": 0,
        "slot": "1",
        "type": "t_mapping(t_address,t_mapping(t_uint256,t_struct(SalesConfig)1955_storage))"
      },
      {
        "astId": 1424,
        "contract": "contracts/PerpetualSalesStrategy.sol:PerpetualEditionsSaleStrategy",
        "label": "contractConfigs",
        "offset": 0,
        "slot": "2",
        "type": "t_mapping(t_address,t_struct(ContractConfig)1939_storage)"
      }
    ],
    "types": {
      "t_address": {
        "encoding": "inplace",
        "label": "address",
        "numberOfBytes": "20"
      },
      "t_mapping(t_address,t_mapping(t_uint256,t_mapping(t_address,t_uint256)))": {
        "encoding": "mapping",
        "key": "t_address",
        "label": "mapping(address => mapping(uint256 => mapping(address => uint256)))",
        "numberOfBytes": "32",
        "value": "t_mapping(t_uint256,t_mapping(t_address,t_uint256))"
      },
      "t_mapping(t_address,t_mapping(t_uint256,t_struct(SalesConfig)1955_storage))": {
        "encoding": "mapping",
        "key": "t_address",
        "label": "mapping(address => mapping(uint256 => struct IPerpetualEditionsSaleStrategy.SalesConfig))",
        "numberOfBytes": "32",
        "value": "t_mapping(t_uint256,t_struct(SalesConfig)1955_storage)"
      },
      "t_mapping(t_address,t_struct(ContractConfig)1939_storage)": {
        "encoding": "mapping",
        "key": "t_address",
        "label": "mapping(address => struct IPerpetualEditionsSaleStrategy.ContractConfig)",
        "numberOfBytes": "32",
        "value": "t_struct(ContractConfig)1939_storage"
      },
      "t_mapping(t_address,t_uint256)": {
        "encoding": "mapping",
        "key": "t_address",
        "label": "mapping(address => uint256)",
        "numberOfBytes": "32",
        "value": "t_uint256"
      },
      "t_mapping(t_uint256,t_mapping(t_address,t_uint256))": {
        "encoding": "mapping",
        "key": "t_uint256",
        "label": "mapping(uint256 => mapping(address => uint256))",
        "numberOfBytes": "32",
        "value": "t_mapping(t_address,t_uint256)"
      },
      "t_mapping(t_uint256,t_struct(SalesConfig)1955_storage)": {
        "encoding": "mapping",
        "key": "t_uint256",
        "label": "mapping(uint256 => struct IPerpetualEditionsSaleStrategy.SalesConfig)",
        "numberOfBytes": "32",
        "value": "t_struct(SalesConfig)1955_storage"
      },
      "t_string_storage": {
        "encoding": "bytes",
        "label": "string",
        "numberOfBytes": "32"
      },
      "t_struct(ContractConfig)1939_storage": {
        "encoding": "inplace",
        "label": "struct IPerpetualEditionsSaleStrategy.ContractConfig",
        "members": [
          {
            "astId": 1929,
            "contract": "contracts/PerpetualSalesStrategy.sol:PerpetualEditionsSaleStrategy",
            "label": "totalTokens",
            "offset": 0,
            "slot": "0",
            "type": "t_uint256"
          },
          {
            "astId": 1932,
            "contract": "contracts/PerpetualSalesStrategy.sol:PerpetualEditionsSaleStrategy",
            "label": "baseURI",
            "offset": 0,
            "slot": "1",
            "type": "t_string_storage"
          },
          {
            "astId": 1935,
            "contract": "contracts/PerpetualSalesStrategy.sol:PerpetualEditionsSaleStrategy",
            "label": "fundsRecipient",
            "offset": 0,
            "slot": "2",
            "type": "t_address"
          },
          {
            "astId": 1938,
            "contract": "contracts/PerpetualSalesStrategy.sol:PerpetualEditionsSaleStrategy",
            "label": "duration",
            "offset": 20,
            "slot": "2",
            "type": "t_uint64"
          }
        ],
        "numberOfBytes": "96"
      },
      "t_struct(SalesConfig)1955_storage": {
        "encoding": "inplace",
        "label": "struct IPerpetualEditionsSaleStrategy.SalesConfig",
        "members": [
          {
            "astId": 1942,
            "contract": "contracts/PerpetualSalesStrategy.sol:PerpetualEditionsSaleStrategy",
            "label": "saleStart",
            "offset": 0,
            "slot": "0",
            "type": "t_uint64"
          },
          {
            "astId": 1945,
            "contract": "contracts/PerpetualSalesStrategy.sol:PerpetualEditionsSaleStrategy",
            "label": "saleEnd",
            "offset": 8,
            "slot": "0",
            "type": "t_uint64"
          },
          {
            "astId": 1948,
            "contract": "contracts/PerpetualSalesStrategy.sol:PerpetualEditionsSaleStrategy",
            "label": "maxTokensPerAddress",
            "offset": 16,
            "slot": "0",
            "type": "t_uint64"
          },
          {
            "astId": 1951,
            "contract": "contracts/PerpetualSalesStrategy.sol:PerpetualEditionsSaleStrategy",
            "label": "pricePerToken",
            "offset": 0,
            "slot": "1",
            "type": "t_uint96"
          },
          {
            "astId": 1954,
            "contract": "contracts/PerpetualSalesStrategy.sol:PerpetualEditionsSaleStrategy",
            "label": "creator",
            "offset": 12,
            "slot": "1",
            "type": "t_address"
          }
        ],
        "numberOfBytes": "64"
      },
      "t_uint256": {
        "encoding": "inplace",
        "label": "uint256",
        "numberOfBytes": "32"
      },
      "t_uint64": {
        "encoding": "inplace",
        "label": "uint64",
        "numberOfBytes": "8"
      },
      "t_uint96": {
        "encoding": "inplace",
        "label": "uint96",
        "numberOfBytes": "12"
      }
    }
  }
}