{
  "address": "0x716453979dF2785920c0A183Af370fC69151A7D5",
  "abi": [
    {
      "inputs": [],
      "name": "ContractConfigNotSet",
      "type": "error"
    },
    {
      "inputs": [],
      "name": "NotOwnerOfContract",
      "type": "error"
    },
    {
      "inputs": [],
      "name": "SaleEnded",
      "type": "error"
    },
    {
      "inputs": [],
      "name": "SaleHasNotStarted",
      "type": "error"
    },
    {
      "inputs": [],
      "name": "SaleStillActive",
      "type": "error"
    },
    {
      "inputs": [],
      "name": "SetSaleNotInUse",
      "type": "error"
    },
    {
      "inputs": [
        {
          "internalType": "address",
          "name": "user",
          "type": "address"
        },
        {
          "internalType": "uint256",
          "name": "limit",
          "type": "uint256"
        },
        {
          "internalType": "uint256",
          "name": "requestedAmount",
          "type": "uint256"
        }
      ],
      "name": "UserExceedsMintLimit",
      "type": "error"
    },
    {
      "inputs": [],
      "name": "WrongValueSent",
      "type": "error"
    },
    {
      "anonymous": false,
      "inputs": [
        {
          "indexed": true,
          "internalType": "address",
          "name": "sender",
          "type": "address"
        },
        {
          "indexed": true,
          "internalType": "address",
          "name": "tokenContract",
          "type": "address"
        },
        {
          "indexed": true,
          "internalType": "uint256",
          "name": "tokenId",
          "type": "uint256"
        },
        {
          "indexed": false,
          "internalType": "string",
          "name": "comment",
          "type": "string"
        }
      ],
      "name": "CreatorComment",
      "type": "event"
    },
    {
      "anonymous": false,
      "inputs": [
        {
          "indexed": true,
          "internalType": "address",
          "name": "sender",
          "type": "address"
        },
        {
          "indexed": true,
          "internalType": "address",
          "name": "tokenContract",
          "type": "address"
        },
        {
          "indexed": true,
          "internalType": "uint256",
          "name": "tokenId",
          "type": "uint256"
        },
        {
          "indexed": false,
          "internalType": "uint256",
          "name": "quantity",
          "type": "uint256"
        },
        {
          "indexed": false,
          "internalType": "string",
          "name": "comment",
          "type": "string"
        }
      ],
      "name": "MintComment",
      "type": "event"
    },
    {
      "anonymous": false,
      "inputs": [
        {
          "indexed": true,
          "internalType": "address",
          "name": "mediaContract",
          "type": "address"
        },
        {
          "indexed": true,
          "internalType": "uint256",
          "name": "tokenId",
          "type": "uint256"
        },
        {
          "components": [
            {
              "internalType": "uint64",
              "name": "saleStart",
              "type": "uint64"
            },
            {
              "internalType": "uint64",
              "name": "saleEnd",
              "type": "uint64"
            },
            {
              "internalType": "uint64",
              "name": "maxTokensPerAddress",
              "type": "uint64"
            },
            {
              "internalType": "uint96",
              "name": "pricePerToken",
              "type": "uint96"
            },
            {
              "internalType": "address",
              "name": "creator",
              "type": "address"
            }
          ],
          "indexed": false,
          "internalType": "struct IPerpetualEditionsSaleStrategy.SalesConfig",
          "name": "salesConfig",
          "type": "tuple"
        }
      ],
      "name": "SaleSet",
      "type": "event"
    },
    {
      "inputs": [],
      "name": "contractName",
      "outputs": [
        {
          "internalType": "string",
          "name": "",
          "type": "string"
        }
      ],
      "stateMutability": "pure",
      "type": "function"
    },
    {
      "inputs": [],
      "name": "contractURI",
      "outputs": [
        {
          "internalType": "string",
          "name": "",
          "type": "string"
        }
      ],
      "stateMutability": "pure",
      "type": "function"
    },
    {
      "inputs": [],
      "name": "contractVersion",
      "outputs": [
        {
          "internalType": "string",
          "name": "",
          "type": "string"
        }
      ],
      "stateMutability": "pure",
      "type": "function"
    },
    {
      "inputs": [
        {
          "internalType": "contract IZoraCreator1155",
          "name": "nftAddress",
          "type": "address"
        },
        {
          "components": [
            {
              "internalType": "uint256",
              "name": "maxSupply",
              "type": "uint256"
            },
            {
              "internalType": "uint64",
              "name": "maxTokensPerAddress",
              "type": "uint64"
            },
            {
              "internalType": "uint96",
              "name": "pricePerToken",
              "type": "uint96"
            }
          ],
          "internalType": "struct IPerpetualEditionsSaleStrategy.CreateTokenSaleOptions",
          "name": "salesOptions",
          "type": "tuple"
        },
        {
          "internalType": "string",
          "name": "creatorComment",
          "type": "string"
        }
      ],
      "name": "createToken",
      "outputs": [],
      "stateMutability": "nonpayable",
      "type": "function"
    },
    {
      "inputs": [
        {
          "internalType": "address",
          "name": "tokenContract",
          "type": "address"
        }
      ],
      "name": "getContractConfig",
      "outputs": [
        {
          "components": [
            {
              "internalType": "uint256",
              "name": "totalTokens",
              "type": "uint256"
            },
            {
              "internalType": "string",
              "name": "baseURI",
              "type": "string"
            },
            {
              "internalType": "address",
              "name": "fundsRecipient",
              "type": "address"
            },
            {
              "internalType": "uint64",
              "name": "duration",
              "type": "uint64"
            }
          ],
          "internalType": "struct IPerpetualEditionsSaleStrategy.ContractConfig",
          "name": "",
          "type": "tuple"
        }
      ],
      "stateMutability": "view",
      "type": "function"
    },
    {
      "inputs": [
        {
          "internalType": "address",
          "name": "tokenContract",
          "type": "address"
        },
        {
          "internalType": "uint256",
          "name": "tokenId",
          "type": "uint256"
        },
        {
          "internalType": "address",
          "name": "wallet",
          "type": "address"
        }
      ],
      "name": "getMintedPerWallet",
      "outputs": [
        {
          "internalType": "uint256",
          "name": "",
          "type": "uint256"
        }
      ],
      "stateMutability": "view",
      "type": "function"
    },
    {
      "inputs": [
        {
          "internalType": "address",
          "name": "",
          "type": "address"
        },
        {
          "internalType": "uint256",
          "name": "tokenId",
          "type": "uint256"
        },
        {
          "internalType": "uint256",
          "name": "quantity",
          "type": "uint256"
        },
        {
          "internalType": "uint256",
          "name": "ethValueSent",
          "type": "uint256"
        },
        {
          "internalType": "bytes",
          "name": "minterArguments",
          "type": "bytes"
        }
      ],
      "name": "requestMint",
      "outputs": [
        {
          "components": [
            {
              "components": [
                {
                  "internalType": "enum ICreatorCommands.CreatorActions",
                  "name": "method",
                  "type": "uint8"
                },
                {
                  "internalType": "bytes",
                  "name": "args",
                  "type": "bytes"
                }
              ],
              "internalType": "struct ICreatorCommands.Command[]",
              "name": "commands",
              "type": "tuple[]"
            },
            {
              "internalType": "uint256",
              "name": "at",
              "type": "uint256"
            }
          ],
          "internalType": "struct ICreatorCommands.CommandSet",
          "name": "commands",
          "type": "tuple"
        }
      ],
      "stateMutability": "nonpayable",
      "type": "function"
    },
    {
      "inputs": [
        {
          "internalType": "uint256",
          "name": "tokenId",
          "type": "uint256"
        }
      ],
      "name": "resetSale",
      "outputs": [],
      "stateMutability": "nonpayable",
      "type": "function"
    },
    {
      "inputs": [
        {
          "internalType": "address",
          "name": "tokenContract",
          "type": "address"
        },
        {
          "internalType": "uint256",
          "name": "tokenId",
          "type": "uint256"
        }
      ],
      "name": "sale",
      "outputs": [
        {
          "components": [
            {
              "internalType": "uint64",
              "name": "saleStart",
              "type": "uint64"
            },
            {
              "internalType": "uint64",
              "name": "saleEnd",
              "type": "uint64"
            },
            {
              "internalType": "uint64",
              "name": "maxTokensPerAddress",
              "type": "uint64"
            },
            {
              "internalType": "uint96",
              "name": "pricePerToken",
              "type": "uint96"
            },
            {
              "internalType": "address",
              "name": "creator",
              "type": "address"
            }
          ],
          "internalType": "struct IPerpetualEditionsSaleStrategy.SalesConfig",
          "name": "",
          "type": "tuple"
        }
      ],
      "stateMutability": "view",
      "type": "function"
    },
    {
      "inputs": [
        {
          "internalType": "contract IZoraCreator1155",
          "name": "nftAddress",
          "type": "address"
        },
        {
          "components": [
            {
              "internalType": "uint256",
              "name": "totalTokens",
              "type": "uint256"
            },
            {
              "internalType": "string",
              "name": "baseURI",
              "type": "string"
            },
            {
              "internalType": "address",
              "name": "fundsRecipient",
              "type": "address"
            },
            {
              "internalType": "uint64",
              "name": "duration",
              "type": "uint64"
            }
          ],
          "internalType": "struct IPerpetualEditionsSaleStrategy.ContractConfig",
          "name": "contractConfig",
          "type": "tuple"
        }
      ],
      "name": "setContractConfig",
      "outputs": [],
      "stateMutability": "nonpayable",
      "type": "function"
    },
    {
      "inputs": [
        {
          "internalType": "uint256",
          "name": "",
          "type": "uint256"
        },
        {
          "components": [
            {
              "internalType": "uint64",
              "name": "saleStart",
              "type": "uint64"
            },
            {
              "internalType": "uint64",
              "name": "saleEnd",
              "type": "uint64"
            },
            {
              "internalType": "uint64",
              "name": "maxTokensPerAddress",
              "type": "uint64"
            },
            {
              "internalType": "uint96",
              "name": "pricePerToken",
              "type": "uint96"
            },
            {
              "internalType": "address",
              "name": "creator",
              "type": "address"
            }
          ],
          "internalType": "struct IPerpetualEditionsSaleStrategy.SalesConfig",
          "name": "",
          "type": "tuple"
        }
      ],
      "name": "setSale",
      "outputs": [],
      "stateMutability": "pure",
      "type": "function"
    },
    {
      "inputs": [
        {
          "internalType": "bytes4",
          "name": "interfaceId",
          "type": "bytes4"
        }
      ],
      "name": "supportsInterface",
      "outputs": [
        {
          "internalType": "bool",
          "name": "",
          "type": "bool"
        }
      ],
      "stateMutability": "pure",
      "type": "function"
    }
  ],
  "transactionHash": "0xeb9f85dfdf14b3b58e5d9c95e573b6f3623714e1717d07da0df9d54f61001153",
  "args": [],
  "numDeployments": 1,
  "solcInputHash": "6dc55a421d2437e04ed9d954c683767e",
  "bytecode": "0x608060405234801561001057600080fd5b50612078806100206000396000f3fe608060405234801561001057600080fd5b50600436106100d45760003560e01c806375d0c0dc11610081578063a0a8e4601161005b578063a0a8e4601461033f578063ccbfa34d14610378578063e8a3d4851461039857600080fd5b806375d0c0dc1461029d5780637b49ff2c146102df5780639854c1631461032c57600080fd5b806358bb6057116100b257806358bb605714610129578063611efc091461013c5780636890e5b31461027d57600080fd5b806301ffc9a7146100d957806319b45c4f1461010157806334db7eee14610116575b600080fd5b6100ec6100e736600461162f565b6103a0565b60405190151581526020015b60405180910390f35b61011461010f366004611678565b610448565b005b61011461012436600461173a565b6104e1565b610114610137366004611833565b610513565b61021b61014a3660046118eb565b6040805160a081018252600080825260208201819052918101829052606081018290526080810191909152506001600160a01b038083166000908152600160208181526040808420868552825292839020835160a081018552815467ffffffffffffffff80821683526801000000000000000082048116948301949094527001000000000000000000000000000000009004909216938201939093529101546bffffffffffffffffffffffff811660608301526c010000000000000000000000009004909116608082015292915050565b60408051825167ffffffffffffffff90811682526020808501518216908301528383015116918101919091526060808301516bffffffffffffffffffffffff16908201526080918201516001600160a01b03169181019190915260a0016100f8565b61029061028b366004611917565b610b4a565b6040516100f891906119da565b6040805180820190915260208082527f50657270657475616c2045646974696f6e732053616c65205374726174656779908201525b6040516100f89190611ab7565b61031e6102ed366004611aca565b6001600160a01b03928316600090815260208181526040808320948352938152838220929094168152925290205490565b6040519081526020016100f8565b61011461033a366004611b99565b610e94565b60408051808201909152600581527f312e302e3000000000000000000000000000000000000000000000000000000060208201526102d2565b61038b610386366004611c4c565b611073565b6040516100f89190611c69565b6102d26111b3565b60007f7b49ff2c000000000000000000000000000000000000000000000000000000007fffffffff000000000000000000000000000000000000000000000000000000008316148061043357507f7b49ff2c000000000000000000000000000000000000000000000000000000007fffffffff000000000000000000000000000000000000000000000000000000008316145b806104425750610442826111d3565b92915050565b336000818152600160208181526040808420868552825280842080547fffffffffffffffff00000000000000000000000000000000000000000000000016815590920183905581518381529081018390529081018290526060810182905260808101919091528291907f5e4ad74f00b9a9d4a8452359a7fbd80cc5a6930a9df5e5b797ddc024b24b252c9060a00160405180910390a350565b6040517ffcc760f300000000000000000000000000000000000000000000000000000000815260040160405180910390fd5b60006001856001600160a01b03166375794a3c6040518163ffffffff1660e01b8152600401602060405180830381865afa158015610555573d6000803e3d6000fd5b505050506040513d601f19601f820116820180604052508101906105799190611cc2565b6105839190611d0a565b6001600160a01b0380871660008181526001602081815260408084208785528252808420815160a081018352815467ffffffffffffffff80821683526801000000000000000082048116838701527001000000000000000000000000000000009091041681840152908401546bffffffffffffffffffffffff811660608301526c010000000000000000000000009004909616608080880191909152948452600282528084208151958601909152805485529182018054969750949592949192908401919061065190611d1d565b80601f016020809104026020016040519081016040528092919081815260200182805461067d90611d1d565b80156106ca5780601f1061069f576101008083540402835291602001916106ca565b820191906000526020600020905b8154815290600101906020018083116106ad57829003601f168201915b5050509183525050600291909101546001600160a01b0381166020808401919091527401000000000000000000000000000000000000000090910467ffffffffffffffff1660409092019190915281015151909150600003610758576040517f10dac50900000000000000000000000000000000000000000000000000000000815260040160405180910390fd5b816020015167ffffffffffffffff164210156107a0576040517fc222683100000000000000000000000000000000000000000000000000000000815260040160405180910390fd5b60006040518060a001604052804267ffffffffffffffff1681526020018360600151426107cd9190611d70565b67ffffffffffffffff168152602001886020015167ffffffffffffffff16815260200188604001516bffffffffffffffffffffffff168152602001336001600160a01b031681525090506000886001600160a01b031663d258609a846020015161084288600161083d9190611d98565b61126b565b604051602001610853929190611dab565b60408051601f19818403018152908290528b517fffffffff0000000000000000000000000000000000000000000000000000000060e085901b16835261089b92600401611dda565b6020604051808303816000875af11580156108ba573d6000803e3d6000fd5b505050506040513d601f19601f820116820180604052508101906108de9190611cc2565b6001600160a01b038a81166000818152600160208181526040808420878552825280842089518154938b01518b84015167ffffffffffffffff908116700100000000000000000000000000000000027fffffffffffffffff0000000000000000ffffffffffffffffffffffffffffffff92821668010000000000000000027fffffffffffffffffffffffffffffffff000000000000000000000000000000009097169190931617949094179390931692909217825560608901516080808b01519097166c01000000000000000000000000026bffffffffffffffffffffffff9091161791830191909155517fc238d1ee0000000000000000000000000000000000000000000000000000000081523360048201526024810186905260448101919091526064810193909352608483015291925063c238d1ee9060a401600060405180830381600087803b158015610a3457600080fd5b505af1158015610a48573d6000803e3d6000fd5b5050505080896001600160a01b03167f5e4ad74f00b9a9d4a8452359a7fbd80cc5a6930a9df5e5b797ddc024b24b252c84604051610ae29190600060a08201905067ffffffffffffffff808451168352806020850151166020840152806040850151166040840152506bffffffffffffffffffffffff60608401511660608301526001600160a01b03608084015116608083015292915050565b60405180910390a38515610b3f5780896001600160a01b0316336001600160a01b03167f50f38e54f021872a4b2d2497881c53d6d50ab253af6ccc8bec79c69e2634b8698a8a604051610b36929190611dfc565b60405180910390a45b505050505050505050565b604080518082019091526060815260006020820152604080516020808201909252600080825291849003610b8b57610b8484860186611c4c565b9150610b9d565b610b9784860186611e2b565b90925090505b3360008181526001602081815260408084208d8552825280842094845260028252808420815160808101909252805482529283018054919392840191610be290611d1d565b80601f0160208091040260200160405190810160405280929190818152602001828054610c0e90611d1d565b8015610c5b5780601f10610c3057610100808354040283529160200191610c5b565b820191906000526020600020905b815481529060010190602001808311610c3e57829003601f168201915b5050509183525050600291909101546001600160a01b038116602083015267ffffffffffffffff74010000000000000000000000000000000000000000909104811660409092019190915283549192506801000000000000000090910416421115610cf2576040517f0bd8a3eb00000000000000000000000000000000000000000000000000000000815260040160405180910390fd5b815467ffffffffffffffff16421015610d37576040517fe8c4db8200000000000000000000000000000000000000000000000000000000815260040160405180910390fd5b60018201548890610d57908b906bffffffffffffffffffffffff16611e7b565b14610d8e576040517f2f4613eb00000000000000000000000000000000000000000000000000000000815260040160405180910390fd5b8154700100000000000000000000000000000000900467ffffffffffffffff1615610de0578154610de090700100000000000000000000000000000000900467ffffffffffffffff168a338d8861130b565b60408101516001600160a01b03161515610e0c81610dff576001610e02565b60025b879060ff166113fd565b610e1886868d8d611463565b835115610e6e578a336001600160a01b0316866001600160a01b03167fb9490aee663998179ad13f9e1c1eb6189c71ad1a9ec87f33ad2766f98d9a268a8d88604051610e65929190611e92565b60405180910390a45b8015610e85576040820151610e859087908b6114dc565b50505050509695505050505050565b816001600160a01b03166323bd0386336000856001600160a01b031663c04643566040518163ffffffff1660e01b81526004016020604051808303816000875af1158015610ee6573d6000803e3d6000fd5b505050506040513d601f19601f82011682018060405250810190610f0a9190611cc2565b6040517fffffffff0000000000000000000000000000000000000000000000000000000060e086901b1681526001600160a01b03909316600484015260248301919091526044820152606401602060405180830381865afa158015610f73573d6000803e3d6000fd5b505050506040513d601f19601f82011682018060405250810190610f979190611eb3565b610fcd576040517f4570a02400000000000000000000000000000000000000000000000000000000815260040160405180910390fd5b6001600160a01b0382166000908152600260209081526040909120825181559082015182919060018201906110029082611f24565b5060408201516002909101805460609093015167ffffffffffffffff1674010000000000000000000000000000000000000000027fffffffff000000000000000000000000000000000000000000000000000000009093166001600160a01b03909216919091179190911790555050565b6110b16040518060800160405280600081526020016060815260200160006001600160a01b03168152602001600067ffffffffffffffff1681525090565b6001600160a01b0382166000908152600260209081526040918290208251608081019093528054835260018101805491928401916110ee90611d1d565b80601f016020809104026020016040519081016040528092919081815260200182805461111a90611d1d565b80156111675780601f1061113c57610100808354040283529160200191611167565b820191906000526020600020905b81548152906001019060200180831161114a57829003601f168201915b5050509183525050600291909101546001600160a01b038116602083015274010000000000000000000000000000000000000000900467ffffffffffffffff1660409091015292915050565b60606040518060600160405280602f8152602001612014602f9139905090565b60007fffffffff0000000000000000000000000000000000000000000000000000000082167f6890e5b300000000000000000000000000000000000000000000000000000000148061044257507fffffffff0000000000000000000000000000000000000000000000000000000082167f01ffc9a7000000000000000000000000000000000000000000000000000000001492915050565b606060006112788361154d565b600101905060008167ffffffffffffffff81111561129857611298611691565b6040519080825280601f01601f1916602001820160405280156112c2576020820181803683370190505b5090508181016020015b600019017f3031323334353637383961626364656600000000000000000000000000000000600a86061a8153600a85049450846112cc57509392505050565b6001600160a01b03808416600090815260208181526040808320868452825280832093851683529290529081208054869290611348908490611d98565b90915550506001600160a01b038084166000908152602081815260408083208684528252808320938516835292905220548510156113f6576001600160a01b03838116600090815260208181526040808320868452825280832093851680845293909152908190205490517fe2d91564000000000000000000000000000000000000000000000000000000008152600481019290925260248201879052604482015260640160405180910390fd5b5050505050565b8067ffffffffffffffff81111561141657611416611691565b60405190808252806020026020018201604052801561145c57816020015b6040805180820190915260008152606060208201528152602001906001900390816114345790505b5090915250565b6040805180820182526002815281516001600160a01b03861660208083019190915292810185905260608101849052909182019060800160408051601f198184030181529190529052845160208601805160018101909152815181106114cb576114cb611fe4565b602002602001018190525050505050565b6040805180820182526001815281516001600160a01b038516602082810191909152928101849052909182019060600160408051601f1981840301815291905290528351602085018051600181019091528151811061153d5761153d611fe4565b6020026020010181905250505050565b6000807a184f03e93ff9f4daa797ed6e38ed64bf6a1f0100000000000000008310611596577a184f03e93ff9f4daa797ed6e38ed64bf6a1f010000000000000000830492506040015b6d04ee2d6d415b85acef810000000083106115c2576d04ee2d6d415b85acef8100000000830492506020015b662386f26fc1000083106115e057662386f26fc10000830492506010015b6305f5e10083106115f8576305f5e100830492506008015b612710831061160c57612710830492506004015b6064831061161e576064830492506002015b600a83106104425760010192915050565b60006020828403121561164157600080fd5b81357fffffffff000000000000000000000000000000000000000000000000000000008116811461167157600080fd5b9392505050565b60006020828403121561168a57600080fd5b5035919050565b7f4e487b7100000000000000000000000000000000000000000000000000000000600052604160045260246000fd5b6040516080810167ffffffffffffffff811182821017156116e3576116e3611691565b60405290565b803567ffffffffffffffff8116811461170157600080fd5b919050565b80356bffffffffffffffffffffffff8116811461170157600080fd5b6001600160a01b038116811461173757600080fd5b50565b60008082840360c081121561174e57600080fd5b8335925060a0601f198201121561176457600080fd5b5060405160a0810181811067ffffffffffffffff8211171561178857611788611691565b604052611797602085016116e9565b81526117a5604085016116e9565b60208201526117b6606085016116e9565b60408201526117c760808501611706565b606082015260a08401356117da81611722565b6080820152919491935090915050565b60008083601f8401126117fc57600080fd5b50813567ffffffffffffffff81111561181457600080fd5b60208301915083602082850101111561182c57600080fd5b9250929050565b60008060008084860360a081121561184a57600080fd5b853561185581611722565b94506060601f198201121561186957600080fd5b506040516060810167ffffffffffffffff828210818311171561188e5761188e611691565b81604052602088013583526118a5604089016116e9565b60208401526118b660608901611706565b6040840152919450608087013591808311156118d157600080fd5b50506118df878288016117ea565b95989497509550505050565b600080604083850312156118fe57600080fd5b823561190981611722565b946020939093013593505050565b60008060008060008060a0878903121561193057600080fd5b863561193b81611722565b9550602087013594506040870135935060608701359250608087013567ffffffffffffffff81111561196c57600080fd5b61197889828a016117ea565b979a9699509497509295939492505050565b60005b838110156119a557818101518382015260200161198d565b50506000910152565b600081518084526119c681602086016020860161198a565b601f01601f19169290920160200192915050565b600060208083526060830184516040808487015282825180855260808801915060808160051b890101945085840193506000805b82811015611aa0577fffffffffffffffffffffffffffffffffffffffffffffffffffffffffffffff808a88030184528551805160038110611a76577f4e487b710000000000000000000000000000000000000000000000000000000084526021600452602484fd5b8852880151888801869052611a8d868901826119ae565b9750509487019492870192600101611a0e565b505050509290950151939091019290925250919050565b60208152600061167160208301846119ae565b600080600060608486031215611adf57600080fd5b8335611aea81611722565b9250602084013591506040840135611b0181611722565b809150509250925092565b600082601f830112611b1d57600080fd5b813567ffffffffffffffff80821115611b3857611b38611691565b604051601f8301601f19908116603f01168101908282118183101715611b6057611b60611691565b81604052838152866020858801011115611b7957600080fd5b836020870160208301376000602085830101528094505050505092915050565b60008060408385031215611bac57600080fd5b8235611bb781611722565b9150602083013567ffffffffffffffff80821115611bd457600080fd5b9084019060808287031215611be857600080fd5b611bf06116c0565b82358152602083013582811115611c0657600080fd5b611c1288828601611b0c565b60208301525060408301359150611c2882611722565b816040820152611c3a606084016116e9565b60608201528093505050509250929050565b600060208284031215611c5e57600080fd5b813561167181611722565b60208152815160208201526000602083015160806040840152611c8f60a08401826119ae565b90506001600160a01b03604085015116606084015267ffffffffffffffff60608501511660808401528091505092915050565b600060208284031215611cd457600080fd5b5051919050565b7f4e487b7100000000000000000000000000000000000000000000000000000000600052601160045260246000fd5b8181038181111561044257610442611cdb565b600181811c90821680611d3157607f821691505b602082108103611d6a577f4e487b7100000000000000000000000000000000000000000000000000000000600052602260045260246000fd5b50919050565b67ffffffffffffffff818116838216019080821115611d9157611d91611cdb565b5092915050565b8082018082111561044257610442611cdb565b60008351611dbd81846020880161198a565b835190830190611dd181836020880161198a565b01949350505050565b604081526000611ded60408301856119ae565b90508260208301529392505050565b60208152816020820152818360408301376000818301604090810191909152601f909201601f19160101919050565b60008060408385031215611e3e57600080fd5b8235611e4981611722565b9150602083013567ffffffffffffffff811115611e6557600080fd5b611e7185828601611b0c565b9150509250929050565b808202811582820484141761044257610442611cdb565b828152604060208201526000611eab60408301846119ae565b949350505050565b600060208284031215611ec557600080fd5b8151801515811461167157600080fd5b601f821115611f1f57600081815260208120601f850160051c81016020861015611efc5750805b601f850160051c820191505b81811015611f1b57828155600101611f08565b5050505b505050565b815167ffffffffffffffff811115611f3e57611f3e611691565b611f5281611f4c8454611d1d565b84611ed5565b602080601f831160018114611f875760008415611f6f5750858301515b600019600386901b1c1916600185901b178555611f1b565b600085815260208120601f198616915b82811015611fb657888601518255948401946001909101908401611f97565b5085821015611fd45787850151600019600388901b60f8161c191681555b5050505050600190811b01905550565b7f4e487b7100000000000000000000000000000000000000000000000000000000600052603260045260246000fdfe68747470733a2f2f6769746875622e636f6d2f6f75727a6f72612f7a6f72612d313135352d636f6e7472616374732fa26469706673582212204da20143f3335212bfd75015c138462385b0b61f0b0ed52b468baff8392fd23e64736f6c63430008120033",
  "devdoc": {
    "author": "@sammdec",
    "kind": "dev",
    "methods": {
      "requestMint(address,uint256,uint256,uint256,bytes)": {
        "params": {
          "ethValueSent": "The amount of ETH sent with the transaction",
          "minterArguments": "The arguments passed to the minter, which should be the address to mint to",
          "quantity": "The quantity of tokens to mint",
          "tokenId": "The token ID to mint"
        }
      }
    },
    "title": "Perpetual editions sale strategy",
    "version": 1
  },
  "userdoc": {
    "kind": "user",
    "methods": {
      "contractName()": {
        "notice": "The name of the sale strategy"
      },
      "contractURI()": {
        "notice": "Contract URI returns the uri for more information about the given contract"
      },
      "contractVersion()": {
        "notice": "The version of the sale strategy"
      },
      "createToken(address,(uint256,uint64,uint96),string)": {
        "notice": "Sets the sale config for the next token"
      },
      "requestMint(address,uint256,uint256,uint256,bytes)": {
        "notice": "Compiles and returns the commands needed to mint a token using this sales strategy"
      },
      "resetSale(uint256)": {
        "notice": "Deletes the sale config for a given token"
      },
      "sale(address,uint256)": {
        "notice": "Returns the sale config for a given token"
      },
      "setSale(uint256,(uint64,uint64,uint64,uint96,address))": {
        "notice": "As we want everyone to be able to create a token and sale we wont be using function, but leaving this here as its convention within ZoraCreator"
      }
    },
    "notice": "A sales strategy for ZoraCreator that enables perpetual editions",
    "version": 1
  },
  "storageLayout": {
    "storage": [
      {
        "astId": 2580,
        "contract": "contracts/PerpetualSalesStrategy.sol:PerpetualEditionsSaleStrategy",
        "label": "mintedPerAddress",
        "offset": 0,
        "slot": "0",
        "type": "t_mapping(t_address,t_mapping(t_uint256,t_mapping(t_address,t_uint256)))"
      },
      {
        "astId": 1419,
        "contract": "contracts/PerpetualSalesStrategy.sol:PerpetualEditionsSaleStrategy",
        "label": "salesConfigs",
        "offset": 0,
        "slot": "1",
        "type": "t_mapping(t_address,t_mapping(t_uint256,t_struct(SalesConfig)1955_storage))"
      },
      {
        "astId": 1424,
        "contract": "contracts/PerpetualSalesStrategy.sol:PerpetualEditionsSaleStrategy",
        "label": "contractConfigs",
        "offset": 0,
        "slot": "2",
        "type": "t_mapping(t_address,t_struct(ContractConfig)1939_storage)"
      }
    ],
    "types": {
      "t_address": {
        "encoding": "inplace",
        "label": "address",
        "numberOfBytes": "20"
      },
      "t_mapping(t_address,t_mapping(t_uint256,t_mapping(t_address,t_uint256)))": {
        "encoding": "mapping",
        "key": "t_address",
        "label": "mapping(address => mapping(uint256 => mapping(address => uint256)))",
        "numberOfBytes": "32",
        "value": "t_mapping(t_uint256,t_mapping(t_address,t_uint256))"
      },
      "t_mapping(t_address,t_mapping(t_uint256,t_struct(SalesConfig)1955_storage))": {
        "encoding": "mapping",
        "key": "t_address",
        "label": "mapping(address => mapping(uint256 => struct IPerpetualEditionsSaleStrategy.SalesConfig))",
        "numberOfBytes": "32",
        "value": "t_mapping(t_uint256,t_struct(SalesConfig)1955_storage)"
      },
      "t_mapping(t_address,t_struct(ContractConfig)1939_storage)": {
        "encoding": "mapping",
        "key": "t_address",
        "label": "mapping(address => struct IPerpetualEditionsSaleStrategy.ContractConfig)",
        "numberOfBytes": "32",
        "value": "t_struct(ContractConfig)1939_storage"
      },
      "t_mapping(t_address,t_uint256)": {
        "encoding": "mapping",
        "key": "t_address",
        "label": "mapping(address => uint256)",
        "numberOfBytes": "32",
        "value": "t_uint256"
      },
      "t_mapping(t_uint256,t_mapping(t_address,t_uint256))": {
        "encoding": "mapping",
        "key": "t_uint256",
        "label": "mapping(uint256 => mapping(address => uint256))",
        "numberOfBytes": "32",
        "value": "t_mapping(t_address,t_uint256)"
      },
      "t_mapping(t_uint256,t_struct(SalesConfig)1955_storage)": {
        "encoding": "mapping",
        "key": "t_uint256",
        "label": "mapping(uint256 => struct IPerpetualEditionsSaleStrategy.SalesConfig)",
        "numberOfBytes": "32",
        "value": "t_struct(SalesConfig)1955_storage"
      },
      "t_string_storage": {
        "encoding": "bytes",
        "label": "string",
        "numberOfBytes": "32"
      },
      "t_struct(ContractConfig)1939_storage": {
        "encoding": "inplace",
        "label": "struct IPerpetualEditionsSaleStrategy.ContractConfig",
        "members": [
          {
            "astId": 1929,
            "contract": "contracts/PerpetualSalesStrategy.sol:PerpetualEditionsSaleStrategy",
            "label": "totalTokens",
            "offset": 0,
            "slot": "0",
            "type": "t_uint256"
          },
          {
            "astId": 1932,
            "contract": "contracts/PerpetualSalesStrategy.sol:PerpetualEditionsSaleStrategy",
            "label": "baseURI",
            "offset": 0,
            "slot": "1",
            "type": "t_string_storage"
          },
          {
            "astId": 1935,
            "contract": "contracts/PerpetualSalesStrategy.sol:PerpetualEditionsSaleStrategy",
            "label": "fundsRecipient",
            "offset": 0,
            "slot": "2",
            "type": "t_address"
          },
          {
            "astId": 1938,
            "contract": "contracts/PerpetualSalesStrategy.sol:PerpetualEditionsSaleStrategy",
            "label": "duration",
            "offset": 20,
            "slot": "2",
            "type": "t_uint64"
          }
        ],
        "numberOfBytes": "96"
      },
      "t_struct(SalesConfig)1955_storage": {
        "encoding": "inplace",
        "label": "struct IPerpetualEditionsSaleStrategy.SalesConfig",
        "members": [
          {
            "astId": 1942,
            "contract": "contracts/PerpetualSalesStrategy.sol:PerpetualEditionsSaleStrategy",
            "label": "saleStart",
            "offset": 0,
            "slot": "0",
            "type": "t_uint64"
          },
          {
            "astId": 1945,
            "contract": "contracts/PerpetualSalesStrategy.sol:PerpetualEditionsSaleStrategy",
            "label": "saleEnd",
            "offset": 8,
            "slot": "0",
            "type": "t_uint64"
          },
          {
            "astId": 1948,
            "contract": "contracts/PerpetualSalesStrategy.sol:PerpetualEditionsSaleStrategy",
            "label": "maxTokensPerAddress",
            "offset": 16,
            "slot": "0",
            "type": "t_uint64"
          },
          {
            "astId": 1951,
            "contract": "contracts/PerpetualSalesStrategy.sol:PerpetualEditionsSaleStrategy",
            "label": "pricePerToken",
            "offset": 0,
            "slot": "1",
            "type": "t_uint96"
          },
          {
            "astId": 1954,
            "contract": "contracts/PerpetualSalesStrategy.sol:PerpetualEditionsSaleStrategy",
            "label": "creator",
            "offset": 12,
            "slot": "1",
            "type": "t_address"
          }
        ],
        "numberOfBytes": "64"
      },
      "t_uint256": {
        "encoding": "inplace",
        "label": "uint256",
        "numberOfBytes": "32"
      },
      "t_uint64": {
        "encoding": "inplace",
        "label": "uint64",
        "numberOfBytes": "8"
      },
      "t_uint96": {
        "encoding": "inplace",
        "label": "uint96",
        "numberOfBytes": "12"
      }
    }
  }
}